{
  "contractName": "TestTaskManage",
  "abi": [
    {
      "constant": false,
      "inputs": [
        {
          "name": "_newOwner",
          "type": "address"
        }
      ],
      "name": "setOwner",
      "outputs": [],
      "payable": false,
      "stateMutability": "nonpayable",
      "type": "function"
    },
    {
      "constant": false,
      "inputs": [
        {
          "name": "playerId",
          "type": "uint256"
        }
      ],
      "name": "approvePlayerResult",
      "outputs": [],
      "payable": false,
      "stateMutability": "nonpayable",
      "type": "function"
    },
    {
      "constant": true,
      "inputs": [],
      "name": "task",
      "outputs": [
        {
          "name": "taskName",
          "type": "string"
        },
        {
          "name": "toolName",
          "type": "string"
        },
        {
          "name": "numPlayers",
          "type": "uint8"
        },
        {
          "name": "maxPlayers",
          "type": "uint8"
        },
        {
          "name": "playerSalary",
          "type": "uint256"
        },
        {
          "name": "isFinished",
          "type": "bool"
        },
        {
          "name": "timeStamp",
          "type": "uint256"
        }
      ],
      "payable": false,
      "stateMutability": "view",
      "type": "function"
    },
    {
      "constant": false,
      "inputs": [
        {
          "name": "playerId",
          "type": "uint256"
        },
        {
          "name": "dataOutputId",
          "type": "uint256"
        }
      ],
      "name": "approvePlayerRequest",
      "outputs": [],
      "payable": false,
      "stateMutability": "nonpayable",
      "type": "function"
    },
    {
      "constant": false,
      "inputs": [
        {
          "name": "toolName",
          "type": "string"
        },
        {
          "name": "maxPlayers",
          "type": "uint8"
        },
        {
          "name": "playerSalary",
          "type": "uint256"
        }
      ],
      "name": "initiateTask",
      "outputs": [],
      "payable": true,
      "stateMutability": "payable",
      "type": "function"
    },
    {
      "constant": true,
      "inputs": [],
      "name": "owner",
      "outputs": [
        {
          "name": "",
          "type": "address"
        }
      ],
      "payable": false,
      "stateMutability": "view",
      "type": "function"
    },
    {
      "constant": false,
      "inputs": [
        {
          "name": "dataInputId",
          "type": "uint256"
        }
      ],
      "name": "submitPlayerRequest",
      "outputs": [
        {
          "name": "playerId",
          "type": "uint256"
        }
      ],
      "payable": false,
      "stateMutability": "nonpayable",
      "type": "function"
    },
    {
      "constant": true,
      "inputs": [],
      "name": "isTaskInitialized",
      "outputs": [
        {
          "name": "",
          "type": "bool"
        }
      ],
      "payable": false,
      "stateMutability": "view",
      "type": "function"
    },
    {
      "constant": false,
      "inputs": [
        {
          "name": "playerId",
          "type": "uint256"
        }
      ],
      "name": "rejectPlayerResult",
      "outputs": [],
      "payable": false,
      "stateMutability": "nonpayable",
      "type": "function"
    },
    {
      "constant": true,
      "inputs": [],
      "name": "getPlayerCount",
      "outputs": [
        {
          "name": "count",
          "type": "uint256"
        }
      ],
      "payable": false,
      "stateMutability": "view",
      "type": "function"
    },
    {
      "constant": true,
      "inputs": [
        {
          "name": "",
          "type": "uint256"
        }
      ],
      "name": "playerPool",
      "outputs": [
        {
          "name": "addr",
          "type": "address"
        },
        {
          "name": "dataInputId",
          "type": "uint256"
        },
        {
          "name": "dataOutputId",
          "type": "uint256"
        },
        {
          "name": "result",
          "type": "int256"
        },
        {
          "name": "status",
          "type": "uint8"
        },
        {
          "name": "timeStamp",
          "type": "uint256"
        }
      ],
      "payable": false,
      "stateMutability": "view",
      "type": "function"
    },
    {
      "constant": false,
      "inputs": [
        {
          "name": "playerId",
          "type": "uint256"
        },
        {
          "name": "result",
          "type": "int256"
        }
      ],
      "name": "submitPlayerResult",
      "outputs": [],
      "payable": false,
      "stateMutability": "nonpayable",
      "type": "function"
    },
    {
      "constant": false,
      "inputs": [],
      "name": "testInitiateTask",
      "outputs": [],
      "payable": true,
      "stateMutability": "payable",
      "type": "function"
    },
    {
      "constant": false,
      "inputs": [],
      "name": "testSubmitPlayerRequest",
      "outputs": [],
      "payable": false,
      "stateMutability": "nonpayable",
      "type": "function"
    },
    {
      "constant": false,
      "inputs": [],
      "name": "testApprovePlayerRequest",
      "outputs": [],
      "payable": false,
      "stateMutability": "nonpayable",
      "type": "function"
    },
    {
      "constant": false,
      "inputs": [],
      "name": "testSubmitPlayerResult",
      "outputs": [],
      "payable": false,
      "stateMutability": "nonpayable",
      "type": "function"
    },
    {
      "constant": false,
      "inputs": [],
      "name": "testApprovePlayerResult",
      "outputs": [],
      "payable": true,
      "stateMutability": "payable",
      "type": "function"
    },
    {
      "constant": false,
      "inputs": [],
      "name": "testRejectPlayerResult",
      "outputs": [],
      "payable": false,
      "stateMutability": "nonpayable",
      "type": "function"
    },
    {
      "constant": false,
      "inputs": [],
      "name": "testGetPlayerCount",
      "outputs": [],
      "payable": false,
      "stateMutability": "nonpayable",
      "type": "function"
    }
  ],
  "bytecode": "0x608060405273f5b475fc347c4ba87e863f0b5269db08af18f248600860016101000a81548173ffffffffffffffffffffffffffffffffffffffff021916908373ffffffffffffffffffffffffffffffffffffffff160217905550336000806101000a81548173ffffffffffffffffffffffffffffffffffffffff021916908373ffffffffffffffffffffffffffffffffffffffff1602179055506136f4806100a86000396000f300608060405260043610610107576000357c0100000000000000000000000000000000000000000000000000000000900463ffffffff16806313af40351461010c5780631f64cacb1461014f57806324bff2991461017c5780633283f6411461019357806348fdbe51146102c25780635d6bc64a146102d957806361bc8c88146103105780636b8dfd2a146103835780636c966a4f1461039a5780637a4d500d146103a45780638da5cb5b146103ae578063a6f017a814610405578063bb76a2a81461041c578063bbef6a891461045d578063bc91cfa01461048c578063c2e52206146104b9578063c4e622e9146104e4578063e0ad5502146104fb578063e583f04914610591575b600080fd5b34801561011857600080fd5b5061014d600480360381019080803573ffffffffffffffffffffffffffffffffffffffff1690602001909291905050506105c8565b005b34801561015b57600080fd5b5061017a600480360381019080803590602001909291905050506106cf565b005b34801561018857600080fd5b50610191610aa2565b005b34801561019f57600080fd5b506101a8610d8b565b6040518080602001806020018860ff1660ff1681526020018760ff1660ff1681526020018681526020018515151515815260200184815260200183810383528a818151815260200191508051906020019080838360005b8381101561021a5780820151818401526020810190506101ff565b50505050905090810190601f1680156102475780820380516001836020036101000a031916815260200191505b50838103825289818151815260200191508051906020019080838360005b83811015610280578082015181840152602081019050610265565b50505050905090810190601f1680156102ad5780820380516001836020036101000a031916815260200191505b50995050505050505050505060405180910390f35b3480156102ce57600080fd5b506102d7610f12565b005b3480156102e557600080fd5b5061030e6004803603810190808035906020019092919080359060200190929190505050610fdc565b005b610381600480360381019080803590602001908201803590602001908080601f0160208091040260200160405190810160405280939291908181526020018383808284378201915050505050509192919290803560ff169060200190929190803590602001909291905050506112fb565b005b34801561038f57600080fd5b50610398611643565b005b6103a2611a91565b005b6103ac611f5d565b005b3480156103ba57600080fd5b506103c361228b565b604051808273ffffffffffffffffffffffffffffffffffffffff1673ffffffffffffffffffffffffffffffffffffffff16815260200191505060405180910390f35b34801561041157600080fd5b5061041a6122b0565b005b34801561042857600080fd5b50610447600480360381019080803590602001909291905050506126d0565b6040518082815260200191505060405180910390f35b34801561046957600080fd5b506104726129d6565b604051808215151515815260200191505060405180910390f35b34801561049857600080fd5b506104b7600480360381019080803590602001909291905050506129e9565b005b3480156104c557600080fd5b506104ce612ce9565b6040518082815260200191505060405180910390f35b3480156104f057600080fd5b506104f9612cf6565b005b34801561050757600080fd5b506105266004803603810190808035906020019092919050505061312c565b604051808773ffffffffffffffffffffffffffffffffffffffff1673ffffffffffffffffffffffffffffffffffffffff1681526020018681526020018581526020018481526020018360ff1660ff168152602001828152602001965050505050505060405180910390f35b34801561059d57600080fd5b506105c660048036038101908080359060200190929190803590602001909291905050506131a4565b005b6000809054906101000a900473ffffffffffffffffffffffffffffffffffffffff1673ffffffffffffffffffffffffffffffffffffffff163373ffffffffffffffffffffffffffffffffffffffff1614151561068c576040517f08c379a00000000000000000000000000000000000000000000000000000000081526004018080602001828103825260098152602001807f4e6f74206f776e6572000000000000000000000000000000000000000000000081525060200191505060405180910390fd5b806000806101000a81548173ffffffffffffffffffffffffffffffffffffffff021916908373ffffffffffffffffffffffffffffffffffffffff16021790555050565b6000809054906101000a900473ffffffffffffffffffffffffffffffffffffffff1673ffffffffffffffffffffffffffffffffffffffff163373ffffffffffffffffffffffffffffffffffffffff16141515610793576040517f08c379a00000000000000000000000000000000000000000000000000000000081526004018080602001828103825260098152602001807f4e6f74206f776e6572000000000000000000000000000000000000000000000081525060200191505060405180910390fd5b8060078054905081101515610810576040517f08c379a00000000000000000000000000000000000000000000000000000000081526004018080602001828103825260108152602001807f496e76616c696420706c6179657249640000000000000000000000000000000081525060200191505060405180910390fd5b600860009054906101000a900460ff161515610894576040517f08c379a00000000000000000000000000000000000000000000000000000000081526004018080602001828103825260148152602001807f5461736b206e6f7420696e697469616c697a656400000000000000000000000081525060200191505060405180910390fd5b60036007838154811015156108a557fe5b906000526020600020906006020160040160009054906101000a900460ff1660ff1614151561093c576040517f08c379a000000000000000000000000000000000000000000000000000000000815260040180806020018281038252600e8152602001807f496e76616c69642073746174757300000000000000000000000000000000000081525060200191505060405180910390fd5b600460078381548110151561094d57fe5b906000526020600020906006020160040160006101000a81548160ff021916908360ff16021790555060018060020160008282829054906101000a900460ff160392506101000a81548160ff021916908360ff16021790555060018060020160018282829054906101000a900460ff160392506101000a81548160ff021916908360ff1602179055506007828154811015156109e557fe5b906000526020600020906006020160000160009054906101000a900473ffffffffffffffffffffffffffffffffffffffff1673ffffffffffffffffffffffffffffffffffffffff166108fc6001600301549081150290604051600060405180830381858888f19350505050158015610a61573d6000803e3d6000fd5b50600160020160019054906101000a900460ff1660ff1660001415610a9e5760018060040160006101000a81548160ff0219169083151502179055505b5050565b600060e0604051908101604052806040805190810160405280600e81526020017f414920436f6d7075746174696f6e00000000000000000000000000000000000081525081526020016040805190810160405280600581526020017f41444d45540000000000000000000000000000000000000000000000000000008152508152602001600060ff168152602001600260ff16815260200166b1a2bc2ec500008152602001600015158152602001635b9eecfc81525060016000820151816000019080519060200190610b769291906134f7565b506020820151816001019080519060200190610b939291906134f7565b5060408201518160020160006101000a81548160ff021916908360ff16021790555060608201518160020160016101000a81548160ff021916908360ff1602179055506080820151816003015560a08201518160040160006101000a81548160ff02191690831515021790555060c082015181600501559050506001600860006101000a81548160ff021916908315150217905550600860019054906101000a900473ffffffffffffffffffffffffffffffffffffffff166000806101000a81548173ffffffffffffffffffffffffffffffffffffffff021916908373ffffffffffffffffffffffffffffffffffffffff160217905550610c9460016126d0565b905060016007805490500381141515610ca957fe5b6001600782815481101515610cba57fe5b906000526020600020906006020160010154141515610cd557fe5b3373ffffffffffffffffffffffffffffffffffffffff16600782815481101515610cfb57fe5b906000526020600020906006020160000160009054906101000a900473ffffffffffffffffffffffffffffffffffffffff1673ffffffffffffffffffffffffffffffffffffffff16141515610d4c57fe5b6001600782815481101515610d5d57fe5b906000526020600020906006020160040160009054906101000a900460ff1660ff16141515610d8857fe5b50565b6001806000018054600181600116156101000203166002900480601f016020809104026020016040519081016040528092919081815260200182805460018160011615610100020316600290048015610e255780601f10610dfa57610100808354040283529160200191610e25565b820191906000526020600020905b815481529060010190602001808311610e0857829003601f168201915b505050505090806001018054600181600116156101000203166002900480601f016020809104026020016040519081016040528092919081815260200182805460018160011615610100020316600290048015610ec35780601f10610e9857610100808354040283529160200191610ec3565b820191906000526020600020905b815481529060010190602001808311610ea657829003601f168201915b5050505050908060020160009054906101000a900460ff16908060020160019054906101000a900460ff16908060030154908060040160009054906101000a900460ff16908060050154905087565b5b60006007805490501115610fbf576007600160078054905003815481101515610f3857fe5b9060005260206000209060060201600080820160006101000a81549073ffffffffffffffffffffffffffffffffffffffff02191690556001820160009055600282016000905560038201600090556004820160006101000a81549060ff0219169055600582016000905550506007805480919060019003610fb99190613577565b50610f13565b610fc7610aa2565b6001610fd1612ce9565b141515610fda57fe5b565b6000809054906101000a900473ffffffffffffffffffffffffffffffffffffffff1673ffffffffffffffffffffffffffffffffffffffff163373ffffffffffffffffffffffffffffffffffffffff161415156110a0576040517f08c379a00000000000000000000000000000000000000000000000000000000081526004018080602001828103825260098152602001807f4e6f74206f776e6572000000000000000000000000000000000000000000000081525060200191505060405180910390fd5b816007805490508110151561111d576040517f08c379a00000000000000000000000000000000000000000000000000000000081526004018080602001828103825260108152602001807f496e76616c696420706c6179657249640000000000000000000000000000000081525060200191505060405180910390fd5b600860009054906101000a900460ff1615156111a1576040517f08c379a00000000000000000000000000000000000000000000000000000000081526004018080602001828103825260148152602001807f5461736b206e6f7420696e697469616c697a656400000000000000000000000081525060200191505060405180910390fd5b600160020160019054906101000a900460ff1660ff16600160020160009054906101000a900460ff1660ff16101515611242576040517f08c379a00000000000000000000000000000000000000000000000000000000081526004018080602001828103825260138152602001807f4d617820706c617965727320726561636865640000000000000000000000000081525060200191505060405180910390fd5b8160078481548110151561125257fe5b906000526020600020906006020160020181905550600260078481548110151561127857fe5b906000526020600020906006020160040160006101000a81548160ff021916908360ff160217905550426007848154811015156112b157fe5b90600052602060002090600602016005018190555060018060020160008282829054906101000a900460ff160192506101000a81548160ff021916908360ff160217905550505050565b6000809054906101000a900473ffffffffffffffffffffffffffffffffffffffff1673ffffffffffffffffffffffffffffffffffffffff163373ffffffffffffffffffffffffffffffffffffffff161415156113bf576040517f08c379a00000000000000000000000000000000000000000000000000000000081526004018080602001828103825260098152602001807f4e6f74206f776e6572000000000000000000000000000000000000000000000081525060200191505060405180910390fd5b600860009054906101000a900460ff16151515611444576040517f08c379a00000000000000000000000000000000000000000000000000000000081526004018080602001828103825260108152602001807f5461736b20696e697469616c697a65640000000000000000000000000000000081525060200191505060405180910390fd5b60008260ff161115156114bf576040517f08c379a000000000000000000000000000000000000000000000000000000000815260040180806020018281038252600f8152602001807f506c61796572206d757374203e2030000000000000000000000000000000000081525060200191505060405180910390fd5b6114d58260ff16826134b990919063ffffffff16565b341015151561154c576040517f08c379a000000000000000000000000000000000000000000000000000000000815260040180806020018281038252600e8152602001807f4e6f7420656e6f7567682045544800000000000000000000000000000000000081525060200191505060405180910390fd5b6040805190810160405280600e81526020017f414920436f6d7075746174696f6e0000000000000000000000000000000000008152506001600001908051906020019061159a9291906135a9565b50826001800190805190602001906115b39291906135a9565b506000600160020160006101000a81548160ff021916908360ff16021790555081600160020160016101000a81548160ff021916908360ff160217905550806001600301819055506000600160040160006101000a81548160ff021916908315150217905550426001600501819055506001600860006101000a81548160ff021916908315150217905550505050565b60e0604051908101604052806040805190810160405280600e81526020017f414920436f6d7075746174696f6e00000000000000000000000000000000000081525081526020016040805190810160405280600581526020017f41444d45540000000000000000000000000000000000000000000000000000008152508152602001600060ff168152602001600260ff16815260200166b1a2bc2ec500008152602001600015158152602001635b9eecfc815250600160008201518160000190805190602001906117159291906134f7565b5060208201518160010190805190602001906117329291906134f7565b5060408201518160020160006101000a81548160ff021916908360ff16021790555060608201518160020160016101000a81548160ff021916908360ff1602179055506080820151816003015560a08201518160040160006101000a81548160ff02191690831515021790555060c082015181600501559050506001600860006101000a81548160ff021916908315150217905550336000806101000a81548173ffffffffffffffffffffffffffffffffffffffff021916908373ffffffffffffffffffffffffffffffffffffffff1602179055505b600060078054905011156118b457600760016007805490500381548110151561182d57fe5b9060005260206000209060060201600080820160006101000a81549073ffffffffffffffffffffffffffffffffffffffff02191690556001820160009055600282016000905560038201600090556004820160006101000a81549060ff02191690556005820160009055505060078054809190600190036118ae9190613577565b50611808565b600760c060405190810160405280600860019054906101000a900473ffffffffffffffffffffffffffffffffffffffff1673ffffffffffffffffffffffffffffffffffffffff16815260200160018152602001600281526020016706f05b59d3b200008152602001600360ff168152602001428152509080600181540180825580915050906001820390600052602060002090600602016000909192909190915060008201518160000160006101000a81548173ffffffffffffffffffffffffffffffffffffffff021916908373ffffffffffffffffffffffffffffffffffffffff16021790555060208201518160010155604082015181600201556060820151816003015560808201518160040160006101000a81548160ff021916908360ff16021790555060a0820151816005015550505060018060020160006101000a81548160ff021916908360ff160217905550611a1060006129e9565b606360076000815481101515611a2257fe5b906000526020600020906006020160040160009054906101000a900460ff1660ff16141515611a4d57fe5b6000600160020160009054906101000a900460ff1660ff16141515611a6e57fe5b6002600160020160019054906101000a900460ff1660ff16141515611a8f57fe5b565b66b1a2bc2ec500003410151515611b10576040517f08c379a00000000000000000000000000000000000000000000000000000000081526004018080602001828103825260208152602001807f302e30352045544820697320726571756972656420666f722074657374696e6781525060200191505060405180910390fd5b60e0604051908101604052806040805190810160405280600e81526020017f414920436f6d7075746174696f6e00000000000000000000000000000000000081525081526020016040805190810160405280600581526020017f41444d45540000000000000000000000000000000000000000000000000000008152508152602001600060ff168152602001600260ff16815260200166b1a2bc2ec500008152602001600015158152602001635b9eecfc81525060016000820151816000019080519060200190611be29291906134f7565b506020820151816001019080519060200190611bff9291906134f7565b5060408201518160020160006101000a81548160ff021916908360ff16021790555060608201518160020160016101000a81548160ff021916908360ff1602179055506080820151816003015560a08201518160040160006101000a81548160ff02191690831515021790555060c082015181600501559050506001600860006101000a81548160ff021916908315150217905550336000806101000a81548173ffffffffffffffffffffffffffffffffffffffff021916908373ffffffffffffffffffffffffffffffffffffffff1602179055505b60006007805490501115611d81576007600160078054905003815481101515611cfa57fe5b9060005260206000209060060201600080820160006101000a81549073ffffffffffffffffffffffffffffffffffffffff02191690556001820160009055600282016000905560038201600090556004820160006101000a81549060ff0219169055600582016000905550506007805480919060019003611d7b9190613577565b50611cd5565b600760c060405190810160405280600860019054906101000a900473ffffffffffffffffffffffffffffffffffffffff1673ffffffffffffffffffffffffffffffffffffffff16815260200160018152602001600281526020016706f05b59d3b200008152602001600360ff168152602001428152509080600181540180825580915050906001820390600052602060002090600602016000909192909190915060008201518160000160006101000a81548173ffffffffffffffffffffffffffffffffffffffff021916908373ffffffffffffffffffffffffffffffffffffffff16021790555060208201518160010155604082015181600201556060820151816003015560808201518160040160006101000a81548160ff021916908360ff16021790555060a0820151816005015550505060018060020160006101000a81548160ff021916908360ff160217905550611edd60006106cf565b600460076000815481101515611eef57fe5b906000526020600020906006020160040160009054906101000a900460ff1660ff16141515611f1a57fe5b6000600160020160009054906101000a900460ff1660ff16141515611f3b57fe5b60018060020160019054906101000a900460ff1660ff16141515611f5b57fe5b565b67016345785d8a00003410151515611fdd576040517f08c379a000000000000000000000000000000000000000000000000000000000815260040180806020018281038252601f8152602001807f302e312045544820697320726571756972656420666f722074657374696e670081525060200191505060405180910390fd5b6000600860006101000a81548160ff02191690831515021790555060e0604051908101604052806020604051908101604052806000815250815260200160206040519081016040528060008152508152602001600060ff168152602001600060ff168152602001600081526020016000151581526020016000815250600160008201518160000190805190602001906120779291906134f7565b5060208201518160010190805190602001906120949291906134f7565b5060408201518160020160006101000a81548160ff021916908360ff16021790555060608201518160020160016101000a81548160ff021916908360ff1602179055506080820151816003015560a08201518160040160006101000a81548160ff02191690831515021790555060c082015181600501559050506121566040805190810160405280600581526020017f41444d4554000000000000000000000000000000000000000000000000000000815250600266b1a2bc2ec500006112fb565b67016345785d8a00003073ffffffffffffffffffffffffffffffffffffffff163114151561218057fe5b60405180807f414920436f6d7075746174696f6e000000000000000000000000000000000000815250600e0190506040518091039020600019166001600001604051808280546001816001161561010002031660029004801561221a5780601f106121f857610100808354040283529182019161221a565b820191906000526020600020905b815481529060010190602001808311612206575b505091505060405180910390206000191614151561223457fe5b6002600160020160019054906101000a900460ff1660ff1614151561225557fe5b600160040160009054906101000a900460ff1615151561227157fe5b600860009054906101000a900460ff16151561228957fe5b565b6000809054906101000a900473ffffffffffffffffffffffffffffffffffffffff1681565b60e0604051908101604052806040805190810160405280600e81526020017f414920436f6d7075746174696f6e00000000000000000000000000000000000081525081526020016040805190810160405280600581526020017f41444d45540000000000000000000000000000000000000000000000000000008152508152602001600060ff168152602001600260ff16815260200166b1a2bc2ec500008152602001600015158152602001635b9eecfc815250600160008201518160000190805190602001906123829291906134f7565b50602082015181600101908051906020019061239f9291906134f7565b5060408201518160020160006101000a81548160ff021916908360ff16021790555060608201518160020160016101000a81548160ff021916908360ff1602179055506080820151816003015560a08201518160040160006101000a81548160ff02191690831515021790555060c082015181600501559050506001600860006101000a81548160ff021916908315150217905550336000806101000a81548173ffffffffffffffffffffffffffffffffffffffff021916908373ffffffffffffffffffffffffffffffffffffffff1602179055505b6000600780549050111561252157600760016007805490500381548110151561249a57fe5b9060005260206000209060060201600080820160006101000a81549073ffffffffffffffffffffffffffffffffffffffff02191690556001820160009055600282016000905560038201600090556004820160006101000a81549060ff021916905560058201600090555050600780548091906001900361251b9190613577565b50612475565b600760c0604051908101604052803373ffffffffffffffffffffffffffffffffffffffff168152602001600181526020016002815260200160008152602001600260ff168152602001428152509080600181540180825580915050906001820390600052602060002090600602016000909192909190915060008201518160000160006101000a81548173ffffffffffffffffffffffffffffffffffffffff021916908373ffffffffffffffffffffffffffffffffffffffff16021790555060208201518160010155604082015181600201556060820151816003015560808201518160040160006101000a81548160ff021916908360ff16021790555060a0820151816005015550505060018060020160006101000a81548160ff021916908360ff16021790555061265d60006706f05b59d3b200006131a4565b6706f05b59d3b200006007600081548110151561267657fe5b90600052602060002090600602016003015414151561269157fe5b6003600760008154811015156126a357fe5b906000526020600020906006020160040160009054906101000a900460ff1660ff161415156126ce57fe5b565b6000600860009054906101000a900460ff161515612756576040517f08c379a00000000000000000000000000000000000000000000000000000000081526004018080602001828103825260148152602001807f5461736b206e6f7420696e697469616c697a656400000000000000000000000081525060200191505060405180910390fd5b6000809054906101000a900473ffffffffffffffffffffffffffffffffffffffff1673ffffffffffffffffffffffffffffffffffffffff163373ffffffffffffffffffffffffffffffffffffffff161415151561281b576040517f08c379a000000000000000000000000000000000000000000000000000000000815260040180806020018281038252600f8152602001807f4f776e657220697320706c61796572000000000000000000000000000000000081525060200191505060405180910390fd5b600160020160019054906101000a900460ff1660ff16600160020160009054906101000a900460ff1660ff161015156128bc576040517f08c379a00000000000000000000000000000000000000000000000000000000081526004018080602001828103825260138152602001807f4d617820706c617965727320726561636865640000000000000000000000000081525060200191505060405180910390fd5b600760c0604051908101604052803373ffffffffffffffffffffffffffffffffffffffff1681526020018481526020016000815260200160008152602001600160ff168152602001428152509080600181540180825580915050906001820390600052602060002090600602016000909192909190915060008201518160000160006101000a81548173ffffffffffffffffffffffffffffffffffffffff021916908373ffffffffffffffffffffffffffffffffffffffff16021790555060208201518160010155604082015181600201556060820151816003015560808201518160040160006101000a81548160ff021916908360ff16021790555060a082015181600501555050506001600780549050039050919050565b600860009054906101000a900460ff1681565b6000809054906101000a900473ffffffffffffffffffffffffffffffffffffffff1673ffffffffffffffffffffffffffffffffffffffff163373ffffffffffffffffffffffffffffffffffffffff16141515612aad576040517f08c379a00000000000000000000000000000000000000000000000000000000081526004018080602001828103825260098152602001807f4e6f74206f776e6572000000000000000000000000000000000000000000000081525060200191505060405180910390fd5b8060078054905081101515612b2a576040517f08c379a00000000000000000000000000000000000000000000000000000000081526004018080602001828103825260108152602001807f496e76616c696420706c6179657249640000000000000000000000000000000081525060200191505060405180910390fd5b600860009054906101000a900460ff161515612bae576040517f08c379a00000000000000000000000000000000000000000000000000000000081526004018080602001828103825260148152602001807f5461736b206e6f7420696e697469616c697a656400000000000000000000000081525060200191505060405180910390fd5b6003600783815481101515612bbf57fe5b906000526020600020906006020160040160009054906101000a900460ff1660ff16141515612c56576040517f08c379a000000000000000000000000000000000000000000000000000000000815260040180806020018281038252600e8152602001807f496e76616c69642073746174757300000000000000000000000000000000000081525060200191505060405180910390fd5b6063600783815481101515612c6757fe5b906000526020600020906006020160040160006101000a81548160ff021916908360ff16021790555042600783815481101515612ca057fe5b90600052602060002090600602016005018190555060018060020160008282829054906101000a900460ff160392506101000a81548160ff021916908360ff1602179055505050565b6000600780549050905090565b60e0604051908101604052806040805190810160405280600e81526020017f414920436f6d7075746174696f6e00000000000000000000000000000000000081525081526020016040805190810160405280600581526020017f41444d45540000000000000000000000000000000000000000000000000000008152508152602001600060ff168152602001600260ff16815260200166b1a2bc2ec500008152602001600015158152602001635b9eecfc81525060016000820151816000019080519060200190612dc89291906134f7565b506020820151816001019080519060200190612de59291906134f7565b5060408201518160020160006101000a81548160ff021916908360ff16021790555060608201518160020160016101000a81548160ff021916908360ff1602179055506080820151816003015560a08201518160040160006101000a81548160ff02191690831515021790555060c082015181600501559050506001600860006101000a81548160ff021916908315150217905550336000806101000a81548173ffffffffffffffffffffffffffffffffffffffff021916908373ffffffffffffffffffffffffffffffffffffffff1602179055505b60006007805490501115612f67576007600160078054905003815481101515612ee057fe5b9060005260206000209060060201600080820160006101000a81549073ffffffffffffffffffffffffffffffffffffffff02191690556001820160009055600282016000905560038201600090556004820160006101000a81549060ff0219169055600582016000905550506007805480919060019003612f619190613577565b50612ebb565b600760c060405190810160405280600860019054906101000a900473ffffffffffffffffffffffffffffffffffffffff1673ffffffffffffffffffffffffffffffffffffffff168152602001600181526020016000815260200160008152602001600160ff168152602001428152509080600181540180825580915050906001820390600052602060002090600602016000909192909190915060008201518160000160006101000a81548173ffffffffffffffffffffffffffffffffffffffff021916908373ffffffffffffffffffffffffffffffffffffffff16021790555060208201518160010155604082015181600201556060820151816003015560808201518160040160006101000a81548160ff021916908360ff16021790555060a082015181600501555050506130a060006002610fdc565b6002600760008154811015156130b257fe5b9060005260206000209060060201600201541415156130cd57fe5b6002600760008154811015156130df57fe5b906000526020600020906006020160040160009054906101000a900460ff1660ff1614151561310a57fe5b60018060020160009054906101000a900460ff1660ff1614151561312a57fe5b565b60078181548110151561313b57fe5b90600052602060002090600602016000915090508060000160009054906101000a900473ffffffffffffffffffffffffffffffffffffffff16908060010154908060020154908060030154908060040160009054906101000a900460ff16908060050154905086565b8160078054905081101515613221576040517f08c379a00000000000000000000000000000000000000000000000000000000081526004018080602001828103825260108152602001807f496e76616c696420706c6179657249640000000000000000000000000000000081525060200191505060405180910390fd5b600860009054906101000a900460ff1615156132a5576040517f08c379a00000000000000000000000000000000000000000000000000000000081526004018080602001828103825260148152602001807f5461736b206e6f7420696e697469616c697a656400000000000000000000000081525060200191505060405180910390fd5b6007838154811015156132b457fe5b906000526020600020906006020160000160009054906101000a900473ffffffffffffffffffffffffffffffffffffffff1673ffffffffffffffffffffffffffffffffffffffff163373ffffffffffffffffffffffffffffffffffffffff16141515613388576040517f08c379a00000000000000000000000000000000000000000000000000000000081526004018080602001828103825260118152602001807f4e6f74206f726967696e20706c6179657200000000000000000000000000000081525060200191505060405180910390fd5b600260078481548110151561339957fe5b906000526020600020906006020160040160009054906101000a900460ff1660ff16141515613430576040517f08c379a000000000000000000000000000000000000000000000000000000000815260040180806020018281038252600e8152602001807f496e76616c69642073746174757300000000000000000000000000000000000081525060200191505060405180910390fd5b8160078481548110151561344057fe5b906000526020600020906006020160030181905550600360078481548110151561346657fe5b906000526020600020906006020160040160006101000a81548160ff021916908360ff1602179055504260078481548110151561349f57fe5b906000526020600020906006020160050181905550505050565b60008060008414156134ce57600091506134f0565b82840290508284828115156134df57fe5b041415156134ec57600080fd5b8091505b5092915050565b828054600181600116156101000203166002900490600052602060002090601f016020900481019282601f1061353857805160ff1916838001178555613566565b82800160010185558215613566579182015b8281111561356557825182559160200191906001019061354a565b5b5090506135739190613629565b5090565b8154818355818111156135a4576006028160060283600052602060002091820191016135a3919061364e565b5b505050565b828054600181600116156101000203166002900490600052602060002090601f016020900481019282601f106135ea57805160ff1916838001178555613618565b82800160010185558215613618579182015b828111156136175782518255916020019190600101906135fc565b5b5090506136259190613629565b5090565b61364b91905b8082111561364757600081600090555060010161362f565b5090565b90565b6136c591905b808211156136c157600080820160006101000a81549073ffffffffffffffffffffffffffffffffffffffff02191690556001820160009055600282016000905560038201600090556004820160006101000a81549060ff0219169055600582016000905550600601613654565b5090565b905600a165627a7a7230582012d9293197f0fbe4e3fc6e40cbed4bc43c688dc337b3ffc1c10edbd36090e7340029",
  "source": "/* For HealthChainHack, Sep 2018\n * Author: Xinghua Liang\n * Copyright: BlockTEST LLC\n */\n pragma solidity ^0.4.24;\n\nimport \"./TaskManage.sol\";\n\ncontract TestTaskManage is TaskManage {\n    address playerAddr = 0xf5b475Fc347C4BA87E863f0b5269db08Af18f248;\n\n    function testInitiateTask() public payable {\n        require(msg.value >= 0.1 ether, \"0.1 ETH is required for testing\");\n        isTaskInitialized = false;\n        task = Task({taskName: \"\", toolName: \"\",\n                     numPlayers: 0, maxPlayers: 0, playerSalary: 0 ether,\n                     isFinished: false, timeStamp: 0});\n        \n        initiateTask(\"ADMET\", 2, 0.05 ether);\n        \n        assert(address(this).balance == 0.1 ether);\n        assert(keccak256(bytes(task.taskName)) == keccak256(\"AI Computation\"));\n        assert(task.maxPlayers == 2);\n        assert(!task.isFinished);\n        assert(isTaskInitialized);\n    }\n    \n    function testSubmitPlayerRequest() public {\n        uint playerId;\n        task = Task({taskName: \"AI Computation\", toolName: \"ADMET\",\n                     numPlayers: 0, maxPlayers: 2, playerSalary: 0.05 ether,\n                     isFinished: false, timeStamp: 1537142012});\n        isTaskInitialized = true;\n        owner = playerAddr;\n        \n        playerId = submitPlayerRequest(1);\n        \n        assert(playerId == playerPool.length - 1);\n        assert(playerPool[playerId].dataInputId == 1);\n        assert(playerPool[playerId].addr == msg.sender);\n        assert(playerPool[playerId].status == 1);\n    }\n    \n    function testApprovePlayerRequest() public {\n        /* Initiate Task */\n        task = Task({taskName: \"AI Computation\", toolName: \"ADMET\",\n                     numPlayers: 0, maxPlayers: 2, playerSalary: 0.05 ether,\n                     isFinished: false, timeStamp: 1537142012});\n        isTaskInitialized = true;\n        owner = msg.sender;\n        /* Clean player pool */\n        while (playerPool.length > 0)\n        {\n            delete playerPool[playerPool.length - 1];\n            playerPool.length--;\n        }\n        /* Initiate player */\n        playerPool.push(Player(playerAddr, 1, 0, 0, 1, now));\n        \n        approvePlayerRequest(0, 2);\n\n        assert(playerPool[0].dataOutputId == 2);\n        assert(playerPool[0].status == 2);\n        assert(task.numPlayers == 1);\n        \n    }\n    \n    function testSubmitPlayerResult() public {\n        /* Initiate Task */\n        task = Task({taskName: \"AI Computation\", toolName: \"ADMET\",\n                     numPlayers: 0, maxPlayers: 2, playerSalary: 0.05 ether,\n                     isFinished: false, timeStamp: 1537142012});\n        isTaskInitialized = true;\n        owner = msg.sender;\n        /* Clean player pool */\n        while (playerPool.length > 0)\n        {\n            delete playerPool[playerPool.length - 1];\n            playerPool.length--;\n        }\n        /* Initiate player */\n        playerPool.push(Player(msg.sender, 1, 2, 0, 2, now));\n        task.numPlayers = 1;\n        \n        submitPlayerResult(0, 0.5 ether);\n\n        assert(playerPool[0].result == 0.5 ether);\n        assert(playerPool[0].status == 3);\n    }\n    \n    function testApprovePlayerResult() public payable {\n        require(msg.value >= 0.05 ether, \"0.05 ETH is required for testing\");\n        /* Initiate Task */\n        task = Task({taskName: \"AI Computation\", toolName: \"ADMET\",\n                     numPlayers: 0, maxPlayers: 2, playerSalary: 0.05 ether,\n                     isFinished: false, timeStamp: 1537142012});\n        isTaskInitialized = true;\n        owner = msg.sender;\n        /* Clean player pool */\n        while (playerPool.length > 0)\n        {\n            delete playerPool[playerPool.length - 1];\n            playerPool.length--;\n        }\n        /* Initiate player */\n        playerPool.push(Player(playerAddr, 1, 2, 0.5 ether, 3, now));\n        task.numPlayers = 1;\n        \n        approvePlayerResult(0);\n\n        assert(playerPool[0].status == 4);\n        assert(task.numPlayers == 0);\n        assert(task.maxPlayers == 1);\n    }\n    \n    function testRejectPlayerResult() public {\n        /* Initiate Task */\n        task = Task({taskName: \"AI Computation\", toolName: \"ADMET\",\n                     numPlayers: 0, maxPlayers: 2, playerSalary: 0.05 ether,\n                     isFinished: false, timeStamp: 1537142012});\n        isTaskInitialized = true;\n        owner = msg.sender;\n        /* Clean player pool */\n        while (playerPool.length > 0)\n        {\n            delete playerPool[playerPool.length - 1];\n            playerPool.length--;\n        }\n        /* Initiate player */\n        playerPool.push(Player(playerAddr, 1, 2, 0.5 ether, 3, now));\n        task.numPlayers = 1;\n        \n        rejectPlayerResult(0);\n\n        assert(playerPool[0].status == 99);\n        assert(task.numPlayers == 0);\n        assert(task.maxPlayers == 2);\n    }\n\n    function testGetPlayerCount() public {\n        while (playerPool.length > 0)\n        {\n            delete playerPool[playerPool.length - 1];\n            playerPool.length--;\n        }\n\n        testSubmitPlayerRequest();\n        \n        assert(getPlayerCount() == 1);\n    }\n}\n",
  "sourcePath": "/home/ec2-user/healthchainhack-deployable/contracts/TestTaskManage.sol",
  "compiler": {
    "name": "solc",
    "version": "0.4.25+commit.59dbf8f1.Emscripten.clang"
  },
  "schemaVersion": "2.0.2",
  "updatedAt": "2019-02-22T14:52:44.943Z"
}